:1000000075FFDE75FFAD75B21475E10075E2007520
:10001000E340D280D281D2827561057C007E00905F
:10002000040075A40075A5FE75A6FF7B01D2A7ECA0
:1000300093F590EE93F5A08E308C3130827A30803B
:100040002430812F012FAE3020830E20840F208595
:100050001090050F93F5610198740001517401012E
:100060005174020151BC0A067C0011BB012F0C1116
:10007000BB012FBE0A067E0011BB012F0E11BB0172
:100080002FBB00087B01C297D2A701467B00C2A705
:10009000D29701467C0A01A2900400E42E93F5A0B9
:1000A000AC31E42C93F59011BB1CBC00F51EE42E82
:1000B00093F5A0BE00DE0181BE00DDAA6179C8789B
:0800C000C6D8FED9FADAF622D7
:0A0401003F065B4F666D7D077F6FBD
:03050F00050A14C6
:00000001FF
