:1000000075FFDE75FFAD75B21475E10075E2007520
:10001000E340D280D281D2827561057C007E00905F
:10002000040075A40075A5FF75A7FF7B0175A001ED
:10003000EC93F590EE93F5B08E308C3130827B30BE
:1000400080273081320130AE30308311308412305D
:10005000851390050F93F561900400019A74008058
:10006000F1740180ED74020152BC0A067C0011BDDE
:1000700001300C11BD0130BE0A067E0011BD0130F9
:100080000E11BD0130BB00077B0175A00101477B4C
:100090000075A00201477C0A01A4900400E42E939D
:1000A000F5B0AC31E42C93F59011BD1CBC00F51EED
:1000B000E42E93F5B0BE00DE0185BE00DDAA6179B5
:0A00C000C878C6D8FED9FADAF62295
:0A0401003F065B4F666D7D077F6FBD
:03050F00050A14C6
:00000001FF
