:1000000075FFDE75FFAD75B21475E10075E2007520
:10001000E340D280D281D2827561057C007E00905F
:10002000040075A40075A5FF75A7FF7B0175A001ED
:10003000EC93F590EE93F5B08E308C3130827830C1
:10004000802430812F0130AE3020830E20840F2099
:10005000851090050F93F5610197740001527401AA
:10006000015274020152BC0A067C0011BA01300C24
:1000700011BA0130BE0A067E0011BA01300E11BA63
:100080000130BB00077B0175A00101477B0075A013
:100090000201477C0A01A1900400E42E93F5B0AC64
:1000A00031E42C93F59011BA1CBC00F51EE42E939C
:1000B000F5B0BE00DE0182BE00DDAA6179C878C657
:0700C000D8FED9FADAF6229E
:0A0401003F065B4F666D7D077F6FBD
:03050F00050A14C6
:00000001FF
